:060000008031B82D000064
:0800080083018031200077081C
:10001000A0007808A1007908A2007A08A3002300B4
:1000200011082000A400230012082000A5002300CE
:1000300013082000A600230014082000A7000B1EB0
:1000400023288B184328850191308400801E2A289C
:10005000911A45282008F7002108F8002208F90025
:100060002308FA002408230091002000250823001B
:100070009200200026082300930020002708230078
:100080009400090020008031472880317128210028
:10009000151F5D2820001708FA001608F70017083A
:1000A0007A02031D4B287708B3007A08B400960142
:1000B0009701960128156A28210020001708FA00E8
:1000C0001608F70017087A02031D5E287708B100AA
:1000D0007A08B2004030210095068B108031200054
:1000E0002A28911E7B28911E7328230019082000BE
:1000F000A90028147128911280312A28D232E334C1
:10010000E234E4373A10000020102810303C251962
:1001100058102519581025195810A9060A0041220F
:10012000442920140001412244293A1000012010E2
:100130007C10200020102810303C251A4C2CA014D4
:100140000001A014203E2021542720142022331D1A
:1001500000012022321D00012022311D0001202239
:10016000301D0001422A4E1D200020102810303C76
:100170002519581029000D05AD16AD16AD16AD1692
:10018000AD16AD16AD16AD16AD16AD16AD060A0020
:100190004122442920140001412244293A1000013F
:1001A00020107C10200020102810303CA5194C2C69
:1001B000A0140001A014203E202154272014202246
:1001C000351D00012022341D00012022331D0001B5
:1001D0002022321D00012022311D00012022301D6D
:1001E0000001422A4E1D200020102810303CA51985
:1001F0004C2CA01400010D05AD16AD16AD16AD16B4
:10020000AD16AD16AD16AD16AD16AD16AD060A009F
:100210004122442920140001412244293A100001BE
:1002200020107C10200020102810303C251A4C2C67
:10023000A0140001A014203E2021542720002037C4
:100240006F10F232E337EE37E334E4370D05000187
:10025000422A4E1D200020102810303C251958102D
:1002600029000D05AD16AD16AD16AD16AD16AD16C1
:10027000AD16AD16AD16AD16AD060A008A06CD3721
:10028000E437A029E9367036651D2000C121D42449
:10029000D620C4270001C422D320432A492B41225F
:1002A0004F008A068A0600018A06A016AD16A02015
:1002B000D92AC420A016AD168A068A060001D334B6
:1002C0006D316F36EF393A050D00201DA029E93652
:1002D000E237EC372024C9234810A818B1148A0645
:1002E0000001201DA029E936E237EC372023CC2776
:1002F000412A2014311829050D00201DA029E936B6
:10030000E237EC372026CF2B2014301829050D00BA
:10031000201DA029E936E237EC372024C9234805FF
:100320000D00201DA029E936E237EC37202855269C
:10033000D320C4278A060001201DA029E936E23710
:10034000EC3720274F10D02ACC2941224F050D052C
:100350000D00C3376E33E9337539E131E937EE32D9
:10036000731D8A06000134102F1036102F1038101C
:100370003A10C3376E33E93375396110E3306E3AA2
:100380006932613220326510E330EE30EC327305B1
:100390000D0073103A106136F43272376110F63482
:1003A000F3377210E4322032613AEF39A039E9367E
:1003B0007036E539AF30F6306E3D6132EF398A067E
:1003C00000013F103A10CD3AE53974396110E13C33
:1003D000753261050D050D004F39E4326E10E430C1
:1003E000F437731D8A060001B431681D20223010D5
:1003F000C41820223210C419A020B118A02031182E
:10040000A0203910411CA0203710411BA02035101E
:10041000411AA02033104119A020311041188A063A
:100420000001B631681D20223010C418202232107D
:10043000C41920223410C41AA0203910411CA02055
:100440003710411BA0203510411AA020331041194C
:10045000A020311041188A060001B831681D202201
:100460003010C41820223210C41920223410C41AAB
:1004700020223610C41BA0203710411BA0203510AD
:10048000411AA02033104119A020311041188A06CA
:100490000001A016AD16AD16AD16AD16AD16AD1613
:1004A0008A068A060001C337ED306E326F10E432DF
:1004B000F3316F37EF3169326F17A02AF330A01F85
:1004C0002038613961106F31F432EE327210E13C44
:1004D000753261178A0600018A06C432E337E434B4
:1004E000E634E330E4377210E3376E33E9337539BD
:1004F00061326F10F030F230A0366137E4372032CD
:100500006510A53143248A068A0600002300910164
:100510009513151413082000AA0001302300910040
:10052000951315141308F8002000A8107818A814C3
:100530008031002E2030850024308400000803190B
:10054000AE2A0A30F800F701F70BA42AF80BA32A09
:100550005F30F700F70BAA2A800BA12A8031052E05
:1005600022009D11353020009800990121001517B7
:100570000B16C0308B04803120000B2E281DC02BA1
:1005800028113408003C0318B12BFF3A031DCC2A74
:1005900033082C3C0318B12BC701C6013208C50033
:1005A0003108C4004708CB004608CA004508C90006
:1005B0004408C800CF01CE01CD016430CC0020300A
:1005C000D600D201D301D401D5014B08FA004A0864
:1005D000F9004908F8004808F7000310771CFE2AC4
:1005E0004C08D2074D0803184D0FD3074E080318C7
:1005F0004E0FD4074F0803184F0FD507D50CD40C56
:10060000D30CD20CFA0CF90CF80CF70CD60BED2A23
:100610007A08C7007908C6007808C5007708C400C2
:1006200083104708CB004608CA004508C9004408A3
:10063000C800CF01CE013408CD003308CC008318A8
:10064000252B2030850032308400F701F801F901B4
:10065000FA01D201D301D401D5014F084E044D0453
:100660004C040319632B2030D6000310C80DC90DAC
:10067000CA0DCB0DD20DD30DD40DD50D4F0855029B
:10068000031D4C2B4E085402031D4C2B4D085302E6
:10069000031D4C2B4C085202031C5D2B4C08D2024C
:1006A0004D08031C4D0FD3024E08031C4E0FD402FD
:1006B0004F08031C4F0FD5020314F70DF80DF90D69
:1006C000FA0DD60B352B520880005308813F540891
:1006D000823F5508833F7708B0003308B5073408D8
:1006E000B63D0030B73DB83D3008003C03188A2BBA
:1006F0003008053C031C8A2B2F08183C031D842B53
:10070000AF010130F800B82BAF01B801B701B60155
:10071000B501B02B30080E3C03189A2B3008233C4F
:10072000031C9A2BAD36AC0CAB0C2F08173C0318EE
:10073000AF0AB02B3008403C0318AB2B3008553CB7
:10074000031CAB2B0314AD0CAC0CAB0C2F08173CEB
:100750000318AF0AB02BAF01B801B701B601B5015C
:10076000B62BAF01B801B701B601B5010030F800F2
:10077000431078184314AE01003043180130F800DC
:1007800080310C2E111EC22B23009A00200008007D
:100790000B088B1323009517151400000000891B0C
:1007A0008B1713087F390319162C2000C300230070
:1007B00011082000C400230012082000C5004308CF
:1007C000111EE02B23009A00200044082300910012
:1007D00020004508230092000B088B139517151471
:1007E00000000000891B8B17130D140D7F390319AE
:1007F000162C2000C300230011082000C400230091
:1008000012082000C5004308111E042C23009A0082
:100810002000440823009100200045082300920096
:10082000910A0319920A2000C82B23002000080017
:100830000B088B1323009517151400000000891B6B
:100840008B1703184C2C13087F392000C600230097
:1008500011082000C700230012082000C800460825
:10086000111E302C23009A0020004708230091001D
:1008700020004808230092000B088B1395171514CD
:1008800000000000891B8B172000C30B482C4A2C4A
:1008900023004C2C6D2C2300130D140D7F392000E8
:1008A000C600230011082000C70023001208200002
:1008B000C8004608111E5A2C23009A002000470841
:1008C000230091002000480823009200910A031998
:1008D000920A03102000C30B182C08002908343A90
:1008E00003197F2C023A0319972C0E3A0319AF2CE7
:1008F0004B3A0319C72C4C3A0319032D892D2908AB
:10090000AA000B08F7008B132300910120002A088E
:10091000230093009513151555309600AA309600C4
:1009200095149518912C151177088B04912D290891
:10093000AA000B08F7008B132300910120002A085E
:10094000230093009513151555309600AA30960094
:1009500095149518A92C151177088B04912D290849
:10096000AA000B08F7008B132300910120002A082E
:10097000230093009513151555309600AA30960064
:1009800095149518C12C151177088B04912D023000
:10099000A8060030A8180130C3000B08F7008B131D
:1009A0000130230091002000430823009300951399
:1009B000151555309600AA30960095149518DE2C22
:1009C000151177088B043E30910001309200200011
:1009D000C823A81CF32C463023009100013092005C
:1009E0002000C823FA2C4B302300910001309200E4
:1009F0002000C823513023009100013092002000D4
:100A0000C8232300912D543023009100013092001F
:100A10002000C8235F3023009100013092002000A5
:100A2000C8234830C2236530230091000130920072
:100A30002000C8232D30C2237130230091000130E3
:100A400092002000C8235C30C2237D302300910037
:100A5000013092002000C8234C30C223883023008C
:100A60009100013092002000C8235830C2239130F9
:100A700023009100013092002000C823B730C22328
:100A80009C3023009100013092002000C823A9303F
:100A900023009100013092002000C823B3302300CE
:100AA0009100013092002000C823C930230091003A
:100AB000013092002000C823E13023009100013072
:100AC00092002000C823EC302300910001309200F6
:100AD0002000C823F4302300910001309200200050
:100AE000C823113023009100023092002000C82357
:100AF0002D3023009100023092002000C82349309D
:100B000023009100023092002000C8232300912D81
:100B10002000533023009100023092002000C823AF
:100B2000230020002908343C03199E2D2908363C57
:100B300003199E2D2908383C031DB62D6C30230067
:100B400091000230920003102A302000C3001824C4
:100B50002A08111EA92D23009A008230910002302C
:100B60009200031006302000C300182480312E2E7E
:100B7000F0302100990023009F15A0309B00013028
:100B80009C00A6309E0090309D0020002810A814E4
:100B9000A9013430AA002811AF01B001B201B1019E
:100BA000B401B301B801B701B601B501C201C10179
:100BB00023008C01220092019101210017102200D4
:100BC000980121001D10F0302500930522009D1290
:100BD0001D13240095012200920191019701230029
:100BE0009D171D169E1621009116990008302400AD
:100BF0008C0021009513DE308C0020008C16862A94
:100C00000230C300FA30C4009A2AC30B022E8C12A1
:100C1000C0308B04B02ABE2A780B2A2E4008BC00B4
:100C20003F08BB003E08BA003D08B9002E08C000CE
:100C30002D08BF002C08BE002B08BD008C16FF300D
:100C4000C2235530C2233F08C2233E08C2233D08B9
:100C5000C2238C12281C2E2E28106E2C0B2E630003
:020000040001F9
:04000E00C43FFF1ECE
:00000001FF
;PIC12F1840
;CRC=A463  CREATED="15-jun-16 11:59"
